:100000000C9434000C9491020C9491020C94910283
:100010000C9491020C9491020C9491020C94910214
:100020000C9491020C9491020C9491020C94910204
:100030000C9491020C9491020C9491020C949102F4
:100040000C9491020C9491020C9491020C949102E4
:100050000C9491020C9491020C9491020C949102D4
:100060000C9491020C94910211241FBECFEFD8E0A2
:10007000DEBFCDBF0E9459020C943E00F894FFCF22
:10008000001F000000001F00001F101010101F00B4
:10009000001F181818181F00001F1C1C1C1C1F0014
:1000A000001F1E1E1E1E1F00001F1F1F1F1F1F00E0
:1000B00003070F1F0F070300181C1E1F1E1C18002C
:0500C000484F4C410017
:1000C60065B1982F9074492F50E0559547955595F1
:1000D60047955595479555954795982F9078292F8B
:1000E60030E0022E232F000C221F330B000C221FA0
:1000F600331F962F997F492B242B25B968B1982F4A
:100106009071492F50E055954795559547955595CA
:100116004795982F9072292F30E03595279535957C
:10012600279535952795962F997F492B242B28B906
:100136009BB192609BB99BB191609BB92DE02A95CA
:10014600F1F700009BB19E7F9BB99BB19D7F9BB948
:100156009DE09A95F1F7000065B120E1829FC0010C
:100166001124AC01407455275595479555954795EB
:1001760055954795559547959C0120783327022E2E
:10018600232F000C221F330B000C221F331F362F88
:10019600397F432B242B25B948B19C012071332785
:1001A6003595279535952795359527958072992705
:1001B600959587959595879595958795942F997F8C
:1001C600292B822B88B98BB182608BB98BB1816068
:1001D6008BB98DE08A95F1F700008BB18E7F8BB9D4
:1001E6008BB18D7F8BB99DE09A95F1F7000008954C
:1001F60065B1982F9074492F50E0559547955595C0
:1002060047955595479555954795982F9078292F59
:1002160030E0022E232F000C221F330B000C221F6E
:10022600331F962F997F492B242B25B968B1982F18
:100236009071492F50E05595479555954795559599
:100246004795982F9072292F30E03595279535954B
:10025600279535952795962F997F492B242B28B9D5
:100266009BB191609BB9E9EFF0E03197F1F700C0DF
:1002760000009BB19E7F9BB9E9EFF0E03197F1F763
:1002860000C0000065B1F0E18F9FC0011124AC01F0
:1002960040745527559547955595479555954795D6
:1002A600559547959C0120783327022E232F000C65
:1002B600221F330B000C221F331F362F397F432B8F
:1002C600242B25B948B19C012071332735952795F4
:1002D6003595279535952795807299279595879514
:1002E6009595879595958795942F997F292B822BA0
:1002F60088B98BB181608BB989EF90E00197F1F7EE
:1003060000C000008BB18E7F8BB9E9EFF0E031972A
:08031600F1F700C0000008959A
:10031E00CF93DF938BE49DE10197F1F700C00000CE
:10032E0085B1897F85B988B1897F88B91BB884B1B9
:10033E00866084B987B1866087B98AB183608AB9CD
:10034E0085B1897F85B988B1866088B98BB18160A6
:10035E008BB989EF90E00197F1F700C000008BB1E7
:10036E008E7F8BB989EF90E00197F1F700C0000006
:10037E0085B1897F85B988B1866088B98BB1816076
:10038E008BB989EF90E00197F1F700C000008BB1B7
:10039E008E7F8BB989EF90E00197F1F700C00000D6
:1003AE0085B1897F85B988B1897F846088B98BB121
:1003BE0081608BB989EF90E00197F1F700C00000E2
:1003CE008BB18E7F8BB989EF90E00197F1F700C06A
:1003DE00000088E20E94FB008CE00E94FB0040E0DF
:1003EE00C0E00EC0D1E0D40F8C2F90E0A0E0BC0195
:1003FE008A2F60587F4F8F4F0E940C02C85F4D2F7F
:0A040E00C03480F3DF91CF91089510
:10041800CF92DF92EF920F931F93CF93DF936B01ED
:10042800E82E842F90E0880F991F880F991F880F56
:10043800991F806400E010E015C04E2D9601200F32
:10044800311F411D17FD4A95642FA901FA01C49176
:10045800D1E0D80F0E94FB008C2F0E9463000F5F31
:100468001F4F8D2F0830110540F3DF91CF911F9159
:0A0478000F91EF90DF90CF900895F0
:100482000F931F93CF93DF93009769F0D62F8C01C0
:10049200C0E007C0F801EC0FF11D80810E946300EB
:1004A200CF5FCD17B8F3DF91CF911F910F910895D0
:1004B2000E947E022FEF89E698E121508040904011
:1004C200E1F700C0000060E080E00E946F0264E09B
:0C04D20080EC90E0A0E00E944102FFCF0F
:1004DE00623031F0633031F0613029F4805C03C05A
:0E04EE008C5E01C08C5A80680E94FB0008954D
:1004FC000E948F010E9489020E948D0260E080E0C0
:06050C000E946F02089539
:0805120081E00E94FB00089546
:08051A0082E00E94FB0008953D
:040522000C94000035
:00000001FF
